{
  "_format": "hh-sol-artifact-1",
  "contractName": "NFTMarketplace",
  "sourceName": "src/backend/contracts/market.sol",
  "abi": [
    {
      "inputs": [
        {
          "internalType": "string",
          "name": "_name",
          "type": "string"
        },
        {
          "internalType": "string",
          "name": "_symbol",
          "type": "string"
        },
        {
          "internalType": "address",
          "name": "initialOwner",
          "type": "address"
        }
      ],
      "stateMutability": "nonpayable",
      "type": "constructor"
    },
    {
      "inputs": [
        {
          "internalType": "address",
          "name": "sender",
          "type": "address"
        },
        {
          "internalType": "uint256",
          "name": "tokenId",
          "type": "uint256"
        },
        {
          "internalType": "address",
          "name": "owner",
          "type": "address"
        }
      ],
      "name": "ERC721IncorrectOwner",
      "type": "error"
    },
    {
      "inputs": [
        {
          "internalType": "address",
          "name": "operator",
          "type": "address"
        },
        {
          "internalType": "uint256",
          "name": "tokenId",
          "type": "uint256"
        }
      ],
      "name": "ERC721InsufficientApproval",
      "type": "error"
    },
    {
      "inputs": [
        {
          "internalType": "address",
          "name": "approver",
          "type": "address"
        }
      ],
      "name": "ERC721InvalidApprover",
      "type": "error"
    },
    {
      "inputs": [
        {
          "internalType": "address",
          "name": "operator",
          "type": "address"
        }
      ],
      "name": "ERC721InvalidOperator",
      "type": "error"
    },
    {
      "inputs": [
        {
          "internalType": "address",
          "name": "owner",
          "type": "address"
        }
      ],
      "name": "ERC721InvalidOwner",
      "type": "error"
    },
    {
      "inputs": [
        {
          "internalType": "address",
          "name": "receiver",
          "type": "address"
        }
      ],
      "name": "ERC721InvalidReceiver",
      "type": "error"
    },
    {
      "inputs": [
        {
          "internalType": "address",
          "name": "sender",
          "type": "address"
        }
      ],
      "name": "ERC721InvalidSender",
      "type": "error"
    },
    {
      "inputs": [
        {
          "internalType": "uint256",
          "name": "tokenId",
          "type": "uint256"
        }
      ],
      "name": "ERC721NonexistentToken",
      "type": "error"
    },
    {
      "inputs": [
        {
          "internalType": "address",
          "name": "owner",
          "type": "address"
        }
      ],
      "name": "OwnableInvalidOwner",
      "type": "error"
    },
    {
      "inputs": [
        {
          "internalType": "address",
          "name": "account",
          "type": "address"
        }
      ],
      "name": "OwnableUnauthorizedAccount",
      "type": "error"
    },
    {
      "anonymous": false,
      "inputs": [
        {
          "indexed": true,
          "internalType": "address",
          "name": "owner",
          "type": "address"
        },
        {
          "indexed": true,
          "internalType": "address",
          "name": "approved",
          "type": "address"
        },
        {
          "indexed": true,
          "internalType": "uint256",
          "name": "tokenId",
          "type": "uint256"
        }
      ],
      "name": "Approval",
      "type": "event"
    },
    {
      "anonymous": false,
      "inputs": [
        {
          "indexed": true,
          "internalType": "address",
          "name": "owner",
          "type": "address"
        },
        {
          "indexed": true,
          "internalType": "address",
          "name": "operator",
          "type": "address"
        },
        {
          "indexed": false,
          "internalType": "bool",
          "name": "approved",
          "type": "bool"
        }
      ],
      "name": "ApprovalForAll",
      "type": "event"
    },
    {
      "anonymous": false,
      "inputs": [
        {
          "indexed": false,
          "internalType": "uint256",
          "name": "_fromTokenId",
          "type": "uint256"
        },
        {
          "indexed": false,
          "internalType": "uint256",
          "name": "_toTokenId",
          "type": "uint256"
        }
      ],
      "name": "BatchMetadataUpdate",
      "type": "event"
    },
    {
      "anonymous": false,
      "inputs": [
        {
          "indexed": false,
          "internalType": "uint256",
          "name": "itemId",
          "type": "uint256"
        },
        {
          "indexed": false,
          "internalType": "uint256",
          "name": "tokenId",
          "type": "uint256"
        },
        {
          "indexed": false,
          "internalType": "uint256",
          "name": "price",
          "type": "uint256"
        },
        {
          "indexed": true,
          "internalType": "address",
          "name": "seller",
          "type": "address"
        },
        {
          "indexed": true,
          "internalType": "address",
          "name": "buyer",
          "type": "address"
        }
      ],
      "name": "Bought",
      "type": "event"
    },
    {
      "anonymous": false,
      "inputs": [
        {
          "indexed": false,
          "internalType": "uint256",
          "name": "_tokenId",
          "type": "uint256"
        }
      ],
      "name": "MetadataUpdate",
      "type": "event"
    },
    {
      "anonymous": false,
      "inputs": [
        {
          "indexed": false,
          "internalType": "uint256",
          "name": "itemId",
          "type": "uint256"
        },
        {
          "indexed": false,
          "internalType": "uint256",
          "name": "tokenId",
          "type": "uint256"
        },
        {
          "indexed": false,
          "internalType": "uint256",
          "name": "price",
          "type": "uint256"
        },
        {
          "indexed": true,
          "internalType": "address",
          "name": "seller",
          "type": "address"
        }
      ],
      "name": "Offered",
      "type": "event"
    },
    {
      "anonymous": false,
      "inputs": [
        {
          "indexed": true,
          "internalType": "address",
          "name": "previousOwner",
          "type": "address"
        },
        {
          "indexed": true,
          "internalType": "address",
          "name": "newOwner",
          "type": "address"
        }
      ],
      "name": "OwnershipTransferred",
      "type": "event"
    },
    {
      "anonymous": false,
      "inputs": [
        {
          "indexed": true,
          "internalType": "address",
          "name": "from",
          "type": "address"
        },
        {
          "indexed": true,
          "internalType": "address",
          "name": "to",
          "type": "address"
        },
        {
          "indexed": true,
          "internalType": "uint256",
          "name": "tokenId",
          "type": "uint256"
        }
      ],
      "name": "Transfer",
      "type": "event"
    },
    {
      "inputs": [
        {
          "internalType": "address",
          "name": "to",
          "type": "address"
        },
        {
          "internalType": "uint256",
          "name": "tokenId",
          "type": "uint256"
        }
      ],
      "name": "approve",
      "outputs": [],
      "stateMutability": "nonpayable",
      "type": "function"
    },
    {
      "inputs": [
        {
          "internalType": "address",
          "name": "owner",
          "type": "address"
        }
      ],
      "name": "balanceOf",
      "outputs": [
        {
          "internalType": "uint256",
          "name": "",
          "type": "uint256"
        }
      ],
      "stateMutability": "view",
      "type": "function"
    },
    {
      "inputs": [
        {
          "internalType": "uint256",
          "name": "tokenId",
          "type": "uint256"
        }
      ],
      "name": "getApproved",
      "outputs": [
        {
          "internalType": "address",
          "name": "",
          "type": "address"
        }
      ],
      "stateMutability": "view",
      "type": "function"
    },
    {
      "inputs": [
        {
          "internalType": "address",
          "name": "owner",
          "type": "address"
        },
        {
          "internalType": "address",
          "name": "operator",
          "type": "address"
        }
      ],
      "name": "isApprovedForAll",
      "outputs": [
        {
          "internalType": "bool",
          "name": "",
          "type": "bool"
        }
      ],
      "stateMutability": "view",
      "type": "function"
    },
    {
      "inputs": [],
      "name": "itemCount",
      "outputs": [
        {
          "internalType": "uint256",
          "name": "",
          "type": "uint256"
        }
      ],
      "stateMutability": "view",
      "type": "function"
    },
    {
      "inputs": [
        {
          "internalType": "uint256",
          "name": "",
          "type": "uint256"
        }
      ],
      "name": "items",
      "outputs": [
        {
          "internalType": "uint256",
          "name": "itemId",
          "type": "uint256"
        },
        {
          "internalType": "uint256",
          "name": "tokenId",
          "type": "uint256"
        },
        {
          "internalType": "uint256",
          "name": "price",
          "type": "uint256"
        },
        {
          "internalType": "address payable",
          "name": "seller",
          "type": "address"
        },
        {
          "internalType": "bool",
          "name": "sold",
          "type": "bool"
        }
      ],
      "stateMutability": "view",
      "type": "function"
    },
    {
      "inputs": [
        {
          "internalType": "uint256",
          "name": "tokenId",
          "type": "uint256"
        },
        {
          "internalType": "uint256",
          "name": "_price",
          "type": "uint256"
        }
      ],
      "name": "listNFT",
      "outputs": [],
      "stateMutability": "nonpayable",
      "type": "function"
    },
    {
      "inputs": [
        {
          "internalType": "string",
          "name": "_tokenURI",
          "type": "string"
        },
        {
          "internalType": "uint256",
          "name": "_price",
          "type": "uint256"
        }
      ],
      "name": "mintNFT",
      "outputs": [
        {
          "internalType": "uint256",
          "name": "",
          "type": "uint256"
        }
      ],
      "stateMutability": "nonpayable",
      "type": "function"
    },
    {
      "inputs": [],
      "name": "name",
      "outputs": [
        {
          "internalType": "string",
          "name": "",
          "type": "string"
        }
      ],
      "stateMutability": "view",
      "type": "function"
    },
    {
      "inputs": [],
      "name": "nextTokenId",
      "outputs": [
        {
          "internalType": "uint256",
          "name": "",
          "type": "uint256"
        }
      ],
      "stateMutability": "view",
      "type": "function"
    },
    {
      "inputs": [],
      "name": "owner",
      "outputs": [
        {
          "internalType": "address",
          "name": "",
          "type": "address"
        }
      ],
      "stateMutability": "view",
      "type": "function"
    },
    {
      "inputs": [
        {
          "internalType": "uint256",
          "name": "tokenId",
          "type": "uint256"
        }
      ],
      "name": "ownerOf",
      "outputs": [
        {
          "internalType": "address",
          "name": "",
          "type": "address"
        }
      ],
      "stateMutability": "view",
      "type": "function"
    },
    {
      "inputs": [
        {
          "internalType": "uint256",
          "name": "tokenId",
          "type": "uint256"
        }
      ],
      "name": "purchaseNFT",
      "outputs": [],
      "stateMutability": "payable",
      "type": "function"
    },
    {
      "inputs": [],
      "name": "renounceOwnership",
      "outputs": [],
      "stateMutability": "nonpayable",
      "type": "function"
    },
    {
      "inputs": [
        {
          "internalType": "address",
          "name": "from",
          "type": "address"
        },
        {
          "internalType": "address",
          "name": "to",
          "type": "address"
        },
        {
          "internalType": "uint256",
          "name": "tokenId",
          "type": "uint256"
        }
      ],
      "name": "safeTransferFrom",
      "outputs": [],
      "stateMutability": "nonpayable",
      "type": "function"
    },
    {
      "inputs": [
        {
          "internalType": "address",
          "name": "from",
          "type": "address"
        },
        {
          "internalType": "address",
          "name": "to",
          "type": "address"
        },
        {
          "internalType": "uint256",
          "name": "tokenId",
          "type": "uint256"
        },
        {
          "internalType": "bytes",
          "name": "data",
          "type": "bytes"
        }
      ],
      "name": "safeTransferFrom",
      "outputs": [],
      "stateMutability": "nonpayable",
      "type": "function"
    },
    {
      "inputs": [
        {
          "internalType": "address",
          "name": "operator",
          "type": "address"
        },
        {
          "internalType": "bool",
          "name": "approved",
          "type": "bool"
        }
      ],
      "name": "setApprovalForAll",
      "outputs": [],
      "stateMutability": "nonpayable",
      "type": "function"
    },
    {
      "inputs": [
        {
          "internalType": "bytes4",
          "name": "interfaceId",
          "type": "bytes4"
        }
      ],
      "name": "supportsInterface",
      "outputs": [
        {
          "internalType": "bool",
          "name": "",
          "type": "bool"
        }
      ],
      "stateMutability": "view",
      "type": "function"
    },
    {
      "inputs": [],
      "name": "symbol",
      "outputs": [
        {
          "internalType": "string",
          "name": "",
          "type": "string"
        }
      ],
      "stateMutability": "view",
      "type": "function"
    },
    {
      "inputs": [
        {
          "internalType": "uint256",
          "name": "tokenId",
          "type": "uint256"
        }
      ],
      "name": "tokenURI",
      "outputs": [
        {
          "internalType": "string",
          "name": "",
          "type": "string"
        }
      ],
      "stateMutability": "view",
      "type": "function"
    },
    {
      "inputs": [
        {
          "internalType": "address",
          "name": "from",
          "type": "address"
        },
        {
          "internalType": "address",
          "name": "to",
          "type": "address"
        },
        {
          "internalType": "uint256",
          "name": "tokenId",
          "type": "uint256"
        }
      ],
      "name": "transferFrom",
      "outputs": [],
      "stateMutability": "nonpayable",
      "type": "function"
    },
    {
      "inputs": [
        {
          "internalType": "address",
          "name": "newOwner",
          "type": "address"
        }
      ],
      "name": "transferOwnership",
      "outputs": [],
      "stateMutability": "nonpayable",
      "type": "function"
    }
  ],
  "bytecode": "0x60806040523480156200001157600080fd5b506040516200377a3803806200377a8339818101604052810190620000379190620003ae565b80838381600090816200004b919062000693565b5080600190816200005d919062000693565b505050600073ffffffffffffffffffffffffffffffffffffffff168173ffffffffffffffffffffffffffffffffffffffff1603620000d55760006040517f1e4fbdf7000000000000000000000000000000000000000000000000000000008152600401620000cc91906200078b565b60405180910390fd5b620000e681620000f060201b60201c565b50505050620007a8565b6000600760009054906101000a900473ffffffffffffffffffffffffffffffffffffffff16905081600760006101000a81548173ffffffffffffffffffffffffffffffffffffffff021916908373ffffffffffffffffffffffffffffffffffffffff1602179055508173ffffffffffffffffffffffffffffffffffffffff168173ffffffffffffffffffffffffffffffffffffffff167f8be0079c531659141344cd1fd0a4f28419497f9722a3daafe3b4186f6b6457e060405160405180910390a35050565b6000604051905090565b600080fd5b600080fd5b600080fd5b600080fd5b6000601f19601f8301169050919050565b7f4e487b7100000000000000000000000000000000000000000000000000000000600052604160045260246000fd5b6200021f82620001d4565b810181811067ffffffffffffffff82111715620002415762000240620001e5565b5b80604052505050565b600062000256620001b6565b905062000264828262000214565b919050565b600067ffffffffffffffff821115620002875762000286620001e5565b5b6200029282620001d4565b9050602081019050919050565b60005b83811015620002bf578082015181840152602081019050620002a2565b60008484015250505050565b6000620002e2620002dc8462000269565b6200024a565b905082815260208101848484011115620003015762000300620001cf565b5b6200030e8482856200029f565b509392505050565b600082601f8301126200032e576200032d620001ca565b5b815162000340848260208601620002cb565b91505092915050565b600073ffffffffffffffffffffffffffffffffffffffff82169050919050565b6000620003768262000349565b9050919050565b620003888162000369565b81146200039457600080fd5b50565b600081519050620003a8816200037d565b92915050565b600080600060608486031215620003ca57620003c9620001c0565b5b600084015167ffffffffffffffff811115620003eb57620003ea620001c5565b5b620003f98682870162000316565b935050602084015167ffffffffffffffff8111156200041d576200041c620001c5565b5b6200042b8682870162000316565b92505060406200043e8682870162000397565b9150509250925092565b600081519050919050565b7f4e487b7100000000000000000000000000000000000000000000000000000000600052602260045260246000fd5b600060028204905060018216806200049b57607f821691505b602082108103620004b157620004b062000453565b5b50919050565b60008190508160005260206000209050919050565b60006020601f8301049050919050565b600082821b905092915050565b6000600883026200051b7fffffffffffffffffffffffffffffffffffffffffffffffffffffffffffffffff82620004dc565b620005278683620004dc565b95508019841693508086168417925050509392505050565b6000819050919050565b6000819050919050565b6000620005746200056e62000568846200053f565b62000549565b6200053f565b9050919050565b6000819050919050565b620005908362000553565b620005a86200059f826200057b565b848454620004e9565b825550505050565b600090565b620005bf620005b0565b620005cc81848462000585565b505050565b5b81811015620005f457620005e8600082620005b5565b600181019050620005d2565b5050565b601f82111562000643576200060d81620004b7565b6200061884620004cc565b8101602085101562000628578190505b620006406200063785620004cc565b830182620005d1565b50505b505050565b600082821c905092915050565b6000620006686000198460080262000648565b1980831691505092915050565b600062000683838362000655565b9150826002028217905092915050565b6200069e8262000448565b67ffffffffffffffff811115620006ba57620006b9620001e5565b5b620006c6825462000482565b620006d3828285620005f8565b600060209050601f8311600181146200070b5760008415620006f6578287015190505b62000702858262000675565b86555062000772565b601f1984166200071b86620004b7565b60005b8281101562000745578489015182556001820191506020850194506020810190506200071e565b8683101562000765578489015162000761601f89168262000655565b8355505b6001600288020188555050505b505050505050565b620007858162000369565b82525050565b6000602082019050620007a260008301846200077a565b92915050565b612fc280620007b86000396000f3fe6080604052600436106101355760003560e01c8063715018a6116100ab578063a22cb4651161006f578063a22cb46514610419578063b88d4fde14610442578063bfb231d21461046b578063c87b56dd146104ac578063e985e9c5146104e9578063f2fde38b1461052657610135565b8063715018a61461035857806375794a3c1461036f5780638da5cb5b1461039a57806394383f14146103c557806395d89b41146103ee57610135565b806323b872dd116100fd57806323b872dd1461022457806342842e0e1461024d5780635afa3a72146102765780636352211e146102b35780636bfb0d01146102f057806370a082311461031b57610135565b806301ffc9a71461013a57806306fdde0314610177578063081812fc146101a2578063095ea7b3146101df578063150bde0314610208575b600080fd5b34801561014657600080fd5b50610161600480360381019061015c919061217f565b61054f565b60405161016e91906121c7565b60405180910390f35b34801561018357600080fd5b5061018c6105b0565b6040516101999190612272565b60405180910390f35b3480156101ae57600080fd5b506101c960048036038101906101c491906122ca565b610642565b6040516101d69190612338565b60405180910390f35b3480156101eb57600080fd5b506102066004803603810190610201919061237f565b61065e565b005b610222600480360381019061021d91906122ca565b610674565b005b34801561023057600080fd5b5061024b600480360381019061024691906123bf565b61089f565b005b34801561025957600080fd5b50610274600480360381019061026f91906123bf565b6109a1565b005b34801561028257600080fd5b5061029d60048036038101906102989190612547565b6109c1565b6040516102aa91906125b2565b60405180910390f35b3480156102bf57600080fd5b506102da60048036038101906102d591906122ca565b610ae3565b6040516102e79190612338565b60405180910390f35b3480156102fc57600080fd5b50610305610af5565b60405161031291906125b2565b60405180910390f35b34801561032757600080fd5b50610342600480360381019061033d91906125cd565b610afb565b60405161034f91906125b2565b60405180910390f35b34801561036457600080fd5b5061036d610bb5565b005b34801561037b57600080fd5b50610384610bc9565b60405161039191906125b2565b60405180910390f35b3480156103a657600080fd5b506103af610bcf565b6040516103bc9190612338565b60405180910390f35b3480156103d157600080fd5b506103ec60048036038101906103e791906125fa565b610bf9565b005b3480156103fa57600080fd5b50610403610d89565b6040516104109190612272565b60405180910390f35b34801561042557600080fd5b50610440600480360381019061043b9190612666565b610e1b565b005b34801561044e57600080fd5b5061046960048036038101906104649190612747565b610e31565b005b34801561047757600080fd5b50610492600480360381019061048d91906122ca565b610e4e565b6040516104a39594939291906127eb565b60405180910390f35b3480156104b857600080fd5b506104d360048036038101906104ce91906122ca565b610eb1565b6040516104e09190612272565b60405180910390f35b3480156104f557600080fd5b50610510600480360381019061050b919061283e565b610fc4565b60405161051d91906121c7565b60405180910390f35b34801561053257600080fd5b5061054d600480360381019061054891906125cd565b611058565b005b6000634906490660e01b7bffffffffffffffffffffffffffffffffffffffffffffffffffffffff1916827bffffffffffffffffffffffffffffffffffffffffffffffffffffffff191614806105a957506105a8826110de565b5b9050919050565b6060600080546105bf906128ad565b80601f01602080910402602001604051908101604052809291908181526020018280546105eb906128ad565b80156106385780601f1061060d57610100808354040283529160200191610638565b820191906000526020600020905b81548152906001019060200180831161061b57829003601f168201915b5050505050905090565b600061064d826111c0565b5061065782611248565b9050919050565b610670828261066b611285565b61128d565b5050565b600a6000828152602001908152602001600020600201543410156106cd576040517f08c379a00000000000000000000000000000000000000000000000000000000081526004016106c49061292a565b60405180910390fd5b6000600a60008381526020019081526020016000209050600081600101541161072b576040517f08c379a000000000000000000000000000000000000000000000000000000000815260040161072290612996565b60405180910390fd5b8060030160149054906101000a900460ff161561077d576040517f08c379a000000000000000000000000000000000000000000000000000000000815260040161077490612a02565b60405180910390fd5b600061078c8260010154610ae3565b905061079d3033846001015461089f565b8073ffffffffffffffffffffffffffffffffffffffff166108fc349081150290604051600060405180830381858888f193505050501580156107e3573d6000803e3d6000fd5b5060018260030160146101000a81548160ff0219169083151502179055503373ffffffffffffffffffffffffffffffffffffffff168260030160009054906101000a900473ffffffffffffffffffffffffffffffffffffffff1673ffffffffffffffffffffffffffffffffffffffff167fb085dc883b64c92d87743e5a1968be3b32761fc31aedacb744268b19a1da21db84600001548560010154866002015460405161089293929190612a22565b60405180910390a3505050565b600073ffffffffffffffffffffffffffffffffffffffff168273ffffffffffffffffffffffffffffffffffffffff16036109115760006040517f64a0ae920000000000000000000000000000000000000000000000000000000081526004016109089190612338565b60405180910390fd5b60006109258383610920611285565b61129f565b90508373ffffffffffffffffffffffffffffffffffffffff168173ffffffffffffffffffffffffffffffffffffffff161461099b578382826040517f64283d7b00000000000000000000000000000000000000000000000000000000815260040161099293929190612a59565b60405180910390fd5b50505050565b6109bc83838360405180602001604052806000815250610e31565b505050565b60006109cb6114b9565b600060085490506109dc3382611540565b6109e68185611639565b6040518060a001604052808281526020018281526020018481526020013373ffffffffffffffffffffffffffffffffffffffff16815260200160001515815250600a600083815260200190815260200160002060008201518160000155602082015181600101556040820151816002015560608201518160030160006101000a81548173ffffffffffffffffffffffffffffffffffffffff021916908373ffffffffffffffffffffffffffffffffffffffff16021790555060808201518160030160146101000a81548160ff02191690831515021790555090505060086000815480929190610ad490612abf565b91905055508091505092915050565b6000610aee826111c0565b9050919050565b60095481565b60008073ffffffffffffffffffffffffffffffffffffffff168273ffffffffffffffffffffffffffffffffffffffff1603610b6e5760006040517f89c62b64000000000000000000000000000000000000000000000000000000008152600401610b659190612338565b60405180910390fd5b600360008373ffffffffffffffffffffffffffffffffffffffff1673ffffffffffffffffffffffffffffffffffffffff168152602001908152602001600020549050919050565b610bbd6114b9565b610bc76000611695565b565b60085481565b6000600760009054906101000a900473ffffffffffffffffffffffffffffffffffffffff16905090565b60008111610c3c576040517f08c379a0000000000000000000000000000000000000000000000000000000008152600401610c3390612b53565b60405180910390fd5b610c46308361065e565b610c5133308461089f565b816009819055506040518060a001604052808381526020018381526020018281526020013373ffffffffffffffffffffffffffffffffffffffff16815260200160001515815250600a600084815260200190815260200160002060008201518160000155602082015181600101556040820151816002015560608201518160030160006101000a81548173ffffffffffffffffffffffffffffffffffffffff021916908373ffffffffffffffffffffffffffffffffffffffff16021790555060808201518160030160146101000a81548160ff0219169083151502179055509050503373ffffffffffffffffffffffffffffffffffffffff167fd846d2cfaaa23a2723be747ef18b5d16a1484d901d581da4843cc27638c862ad838484604051610d7d93929190612a22565b60405180910390a25050565b606060018054610d98906128ad565b80601f0160208091040260200160405190810160405280929190818152602001828054610dc4906128ad565b8015610e115780601f10610de657610100808354040283529160200191610e11565b820191906000526020600020905b815481529060010190602001808311610df457829003601f168201915b5050505050905090565b610e2d610e26611285565b838361175b565b5050565b610e3c84848461089f565b610e48848484846118ca565b50505050565b600a6020528060005260406000206000915090508060000154908060010154908060020154908060030160009054906101000a900473ffffffffffffffffffffffffffffffffffffffff16908060030160149054906101000a900460ff16905085565b6060610ebc826111c0565b506000600660008481526020019081526020016000208054610edd906128ad565b80601f0160208091040260200160405190810160405280929190818152602001828054610f09906128ad565b8015610f565780601f10610f2b57610100808354040283529160200191610f56565b820191906000526020600020905b815481529060010190602001808311610f3957829003601f168201915b505050505090506000610f67611a81565b90506000815103610f7c578192505050610fbf565b600082511115610fb1578082604051602001610f99929190612baf565b60405160208183030381529060405292505050610fbf565b610fba84611a98565b925050505b919050565b6000600560008473ffffffffffffffffffffffffffffffffffffffff1673ffffffffffffffffffffffffffffffffffffffff16815260200190815260200160002060008373ffffffffffffffffffffffffffffffffffffffff1673ffffffffffffffffffffffffffffffffffffffff16815260200190815260200160002060009054906101000a900460ff16905092915050565b6110606114b9565b600073ffffffffffffffffffffffffffffffffffffffff168173ffffffffffffffffffffffffffffffffffffffff16036110d25760006040517f1e4fbdf70000000000000000000000000000000000000000000000000000000081526004016110c99190612338565b60405180910390fd5b6110db81611695565b50565b60007f80ac58cd000000000000000000000000000000000000000000000000000000007bffffffffffffffffffffffffffffffffffffffffffffffffffffffff1916827bffffffffffffffffffffffffffffffffffffffffffffffffffffffff191614806111a957507f5b5e139f000000000000000000000000000000000000000000000000000000007bffffffffffffffffffffffffffffffffffffffffffffffffffffffff1916827bffffffffffffffffffffffffffffffffffffffffffffffffffffffff1916145b806111b957506111b882611b01565b5b9050919050565b6000806111cc83611b6b565b9050600073ffffffffffffffffffffffffffffffffffffffff168173ffffffffffffffffffffffffffffffffffffffff160361123f57826040517f7e27328900000000000000000000000000000000000000000000000000000000815260040161123691906125b2565b60405180910390fd5b80915050919050565b60006004600083815260200190815260200160002060009054906101000a900473ffffffffffffffffffffffffffffffffffffffff169050919050565b600033905090565b61129a8383836001611ba8565b505050565b6000806112ab84611b6b565b9050600073ffffffffffffffffffffffffffffffffffffffff168373ffffffffffffffffffffffffffffffffffffffff16146112ed576112ec818486611d6d565b5b600073ffffffffffffffffffffffffffffffffffffffff168173ffffffffffffffffffffffffffffffffffffffff161461137e5761132f600085600080611ba8565b6001600360008373ffffffffffffffffffffffffffffffffffffffff1673ffffffffffffffffffffffffffffffffffffffff168152602001908152602001600020600082825403925050819055505b600073ffffffffffffffffffffffffffffffffffffffff168573ffffffffffffffffffffffffffffffffffffffff1614611401576001600360008773ffffffffffffffffffffffffffffffffffffffff1673ffffffffffffffffffffffffffffffffffffffff168152602001908152602001600020600082825401925050819055505b846002600086815260200190815260200160002060006101000a81548173ffffffffffffffffffffffffffffffffffffffff021916908373ffffffffffffffffffffffffffffffffffffffff160217905550838573ffffffffffffffffffffffffffffffffffffffff168273ffffffffffffffffffffffffffffffffffffffff167fddf252ad1be2c89b69c2b068fc378daa952ba7f163c4a11628f55a4df523b3ef60405160405180910390a4809150509392505050565b6114c1611285565b73ffffffffffffffffffffffffffffffffffffffff166114df610bcf565b73ffffffffffffffffffffffffffffffffffffffff161461153e57611502611285565b6040517f118cdaa70000000000000000000000000000000000000000000000000000000081526004016115359190612338565b60405180910390fd5b565b600073ffffffffffffffffffffffffffffffffffffffff168273ffffffffffffffffffffffffffffffffffffffff16036115b25760006040517f64a0ae920000000000000000000000000000000000000000000000000000000081526004016115a99190612338565b60405180910390fd5b60006115c08383600061129f565b9050600073ffffffffffffffffffffffffffffffffffffffff168173ffffffffffffffffffffffffffffffffffffffff16146116345760006040517f73c6ac6e00000000000000000000000000000000000000000000000000000000815260040161162b9190612338565b60405180910390fd5b505050565b806006600084815260200190815260200160002090816116599190612d7f565b507ff8e1a15aba9398e019f0b49df1a4fde98ee17ae345cb5f6b5e2c27f5033e8ce78260405161168991906125b2565b60405180910390a15050565b6000600760009054906101000a900473ffffffffffffffffffffffffffffffffffffffff16905081600760006101000a81548173ffffffffffffffffffffffffffffffffffffffff021916908373ffffffffffffffffffffffffffffffffffffffff1602179055508173ffffffffffffffffffffffffffffffffffffffff168173ffffffffffffffffffffffffffffffffffffffff167f8be0079c531659141344cd1fd0a4f28419497f9722a3daafe3b4186f6b6457e060405160405180910390a35050565b600073ffffffffffffffffffffffffffffffffffffffff168273ffffffffffffffffffffffffffffffffffffffff16036117cc57816040517f5b08ba180000000000000000000000000000000000000000000000000000000081526004016117c39190612338565b60405180910390fd5b80600560008573ffffffffffffffffffffffffffffffffffffffff1673ffffffffffffffffffffffffffffffffffffffff16815260200190815260200160002060008473ffffffffffffffffffffffffffffffffffffffff1673ffffffffffffffffffffffffffffffffffffffff16815260200190815260200160002060006101000a81548160ff0219169083151502179055508173ffffffffffffffffffffffffffffffffffffffff168373ffffffffffffffffffffffffffffffffffffffff167f17307eab39ab6107e8899845ad3d59bd9653f200f220920489ca2b5937696c31836040516118bd91906121c7565b60405180910390a3505050565b60008373ffffffffffffffffffffffffffffffffffffffff163b1115611a7b578273ffffffffffffffffffffffffffffffffffffffff1663150b7a0261190e611285565b8685856040518563ffffffff1660e01b81526004016119309493929190612ea6565b6020604051808303816000875af192505050801561196c57506040513d601f19601f820116820180604052508101906119699190612f07565b60015b6119f0573d806000811461199c576040519150601f19603f3d011682016040523d82523d6000602084013e6119a1565b606091505b5060008151036119e857836040517f64a0ae920000000000000000000000000000000000000000000000000000000081526004016119df9190612338565b60405180910390fd5b805181602001fd5b63150b7a0260e01b7bffffffffffffffffffffffffffffffffffffffffffffffffffffffff1916817bffffffffffffffffffffffffffffffffffffffffffffffffffffffff191614611a7957836040517f64a0ae92000000000000000000000000000000000000000000000000000000008152600401611a709190612338565b60405180910390fd5b505b50505050565b606060405180602001604052806000815250905090565b6060611aa3826111c0565b506000611aae611a81565b90506000815111611ace5760405180602001604052806000815250611af9565b80611ad884611e31565b604051602001611ae9929190612baf565b6040516020818303038152906040525b915050919050565b60007f01ffc9a7000000000000000000000000000000000000000000000000000000007bffffffffffffffffffffffffffffffffffffffffffffffffffffffff1916827bffffffffffffffffffffffffffffffffffffffffffffffffffffffff1916149050919050565b60006002600083815260200190815260200160002060009054906101000a900473ffffffffffffffffffffffffffffffffffffffff169050919050565b8080611be15750600073ffffffffffffffffffffffffffffffffffffffff168273ffffffffffffffffffffffffffffffffffffffff1614155b15611d15576000611bf1846111c0565b9050600073ffffffffffffffffffffffffffffffffffffffff168373ffffffffffffffffffffffffffffffffffffffff1614158015611c5c57508273ffffffffffffffffffffffffffffffffffffffff168173ffffffffffffffffffffffffffffffffffffffff1614155b8015611c6f5750611c6d8184610fc4565b155b15611cb157826040517fa9fbf51f000000000000000000000000000000000000000000000000000000008152600401611ca89190612338565b60405180910390fd5b8115611d1357838573ffffffffffffffffffffffffffffffffffffffff168273ffffffffffffffffffffffffffffffffffffffff167f8c5be1e5ebec7d5bd14f71427d1e84f3dd0314c0f7b2291e5b200ac8c7c3b92560405160405180910390a45b505b836004600085815260200190815260200160002060006101000a81548173ffffffffffffffffffffffffffffffffffffffff021916908373ffffffffffffffffffffffffffffffffffffffff16021790555050505050565b611d78838383611eff565b611e2c57600073ffffffffffffffffffffffffffffffffffffffff168373ffffffffffffffffffffffffffffffffffffffff1603611ded57806040517f7e273289000000000000000000000000000000000000000000000000000000008152600401611de491906125b2565b60405180910390fd5b81816040517f177e802f000000000000000000000000000000000000000000000000000000008152600401611e23929190612f34565b60405180910390fd5b505050565b606060006001611e4084611fc0565b01905060008167ffffffffffffffff811115611e5f57611e5e61241c565b5b6040519080825280601f01601f191660200182016040528015611e915781602001600182028036833780820191505090505b509050600082602001820190505b600115611ef4578080600190039150507f3031323334353637383961626364656600000000000000000000000000000000600a86061a8153600a8581611ee857611ee7612f5d565b5b04945060008503611e9f575b819350505050919050565b60008073ffffffffffffffffffffffffffffffffffffffff168373ffffffffffffffffffffffffffffffffffffffff1614158015611fb757508273ffffffffffffffffffffffffffffffffffffffff168473ffffffffffffffffffffffffffffffffffffffff161480611f785750611f778484610fc4565b5b80611fb657508273ffffffffffffffffffffffffffffffffffffffff16611f9e83611248565b73ffffffffffffffffffffffffffffffffffffffff16145b5b90509392505050565b600080600090507a184f03e93ff9f4daa797ed6e38ed64bf6a1f010000000000000000831061201e577a184f03e93ff9f4daa797ed6e38ed64bf6a1f010000000000000000838161201457612013612f5d565b5b0492506040810190505b6d04ee2d6d415b85acef8100000000831061205b576d04ee2d6d415b85acef8100000000838161205157612050612f5d565b5b0492506020810190505b662386f26fc10000831061208a57662386f26fc1000083816120805761207f612f5d565b5b0492506010810190505b6305f5e10083106120b3576305f5e10083816120a9576120a8612f5d565b5b0492506008810190505b61271083106120d85761271083816120ce576120cd612f5d565b5b0492506004810190505b606483106120fb57606483816120f1576120f0612f5d565b5b0492506002810190505b600a831061210a576001810190505b80915050919050565b6000604051905090565b600080fd5b600080fd5b60007fffffffff0000000000000000000000000000000000000000000000000000000082169050919050565b61215c81612127565b811461216757600080fd5b50565b60008135905061217981612153565b92915050565b6000602082840312156121955761219461211d565b5b60006121a38482850161216a565b91505092915050565b60008115159050919050565b6121c1816121ac565b82525050565b60006020820190506121dc60008301846121b8565b92915050565b600081519050919050565b600082825260208201905092915050565b60005b8381101561221c578082015181840152602081019050612201565b60008484015250505050565b6000601f19601f8301169050919050565b6000612244826121e2565b61224e81856121ed565b935061225e8185602086016121fe565b61226781612228565b840191505092915050565b6000602082019050818103600083015261228c8184612239565b905092915050565b6000819050919050565b6122a781612294565b81146122b257600080fd5b50565b6000813590506122c48161229e565b92915050565b6000602082840312156122e0576122df61211d565b5b60006122ee848285016122b5565b91505092915050565b600073ffffffffffffffffffffffffffffffffffffffff82169050919050565b6000612322826122f7565b9050919050565b61233281612317565b82525050565b600060208201905061234d6000830184612329565b92915050565b61235c81612317565b811461236757600080fd5b50565b60008135905061237981612353565b92915050565b600080604083850312156123965761239561211d565b5b60006123a48582860161236a565b92505060206123b5858286016122b5565b9150509250929050565b6000806000606084860312156123d8576123d761211d565b5b60006123e68682870161236a565b93505060206123f78682870161236a565b9250506040612408868287016122b5565b9150509250925092565b600080fd5b600080fd5b7f4e487b7100000000000000000000000000000000000000000000000000000000600052604160045260246000fd5b61245482612228565b810181811067ffffffffffffffff821117156124735761247261241c565b5b80604052505050565b6000612486612113565b9050612492828261244b565b919050565b600067ffffffffffffffff8211156124b2576124b161241c565b5b6124bb82612228565b9050602081019050919050565b82818337600083830152505050565b60006124ea6124e584612497565b61247c565b90508281526020810184848401111561250657612505612417565b5b6125118482856124c8565b509392505050565b600082601f83011261252e5761252d612412565b5b813561253e8482602086016124d7565b91505092915050565b6000806040838503121561255e5761255d61211d565b5b600083013567ffffffffffffffff81111561257c5761257b612122565b5b61258885828601612519565b9250506020612599858286016122b5565b9150509250929050565b6125ac81612294565b82525050565b60006020820190506125c760008301846125a3565b92915050565b6000602082840312156125e3576125e261211d565b5b60006125f18482850161236a565b91505092915050565b600080604083850312156126115761261061211d565b5b600061261f858286016122b5565b9250506020612630858286016122b5565b9150509250929050565b612643816121ac565b811461264e57600080fd5b50565b6000813590506126608161263a565b92915050565b6000806040838503121561267d5761267c61211d565b5b600061268b8582860161236a565b925050602061269c85828601612651565b9150509250929050565b600067ffffffffffffffff8211156126c1576126c061241c565b5b6126ca82612228565b9050602081019050919050565b60006126ea6126e5846126a6565b61247c565b90508281526020810184848401111561270657612705612417565b5b6127118482856124c8565b509392505050565b600082601f83011261272e5761272d612412565b5b813561273e8482602086016126d7565b91505092915050565b600080600080608085870312156127615761276061211d565b5b600061276f8782880161236a565b94505060206127808782880161236a565b9350506040612791878288016122b5565b925050606085013567ffffffffffffffff8111156127b2576127b1612122565b5b6127be87828801612719565b91505092959194509250565b60006127d5826122f7565b9050919050565b6127e5816127ca565b82525050565b600060a08201905061280060008301886125a3565b61280d60208301876125a3565b61281a60408301866125a3565b61282760608301856127dc565b61283460808301846121b8565b9695505050505050565b600080604083850312156128555761285461211d565b5b60006128638582860161236a565b92505060206128748582860161236a565b9150509250929050565b7f4e487b7100000000000000000000000000000000000000000000000000000000600052602260045260246000fd5b600060028204905060018216806128c557607f821691505b6020821081036128d8576128d761287e565b5b50919050565b7f496e73756666696369656e74207061796d656e74000000000000000000000000600082015250565b60006129146014836121ed565b915061291f826128de565b602082019050919050565b6000602082019050818103600083015261294381612907565b9050919050565b7f4974656d20646f65736e27742065786973740000000000000000000000000000600082015250565b60006129806012836121ed565b915061298b8261294a565b602082019050919050565b600060208201905081810360008301526129af81612973565b9050919050565b7f4974656d20697320616c726561647920736f6c64000000000000000000000000600082015250565b60006129ec6014836121ed565b91506129f7826129b6565b602082019050919050565b60006020820190508181036000830152612a1b816129df565b9050919050565b6000606082019050612a3760008301866125a3565b612a4460208301856125a3565b612a5160408301846125a3565b949350505050565b6000606082019050612a6e6000830186612329565b612a7b60208301856125a3565b612a886040830184612329565b949350505050565b7f4e487b7100000000000000000000000000000000000000000000000000000000600052601160045260246000fd5b6000612aca82612294565b91507fffffffffffffffffffffffffffffffffffffffffffffffffffffffffffffffff8203612afc57612afb612a90565b5b600182019050919050565b7f5072696365206d7573742062652067726561746572207468616e207a65726f00600082015250565b6000612b3d601f836121ed565b9150612b4882612b07565b602082019050919050565b60006020820190508181036000830152612b6c81612b30565b9050919050565b600081905092915050565b6000612b89826121e2565b612b938185612b73565b9350612ba38185602086016121fe565b80840191505092915050565b6000612bbb8285612b7e565b9150612bc78284612b7e565b91508190509392505050565b60008190508160005260206000209050919050565b60006020601f8301049050919050565b600082821b905092915050565b600060088302612c357fffffffffffffffffffffffffffffffffffffffffffffffffffffffffffffffff82612bf8565b612c3f8683612bf8565b95508019841693508086168417925050509392505050565b6000819050919050565b6000612c7c612c77612c7284612294565b612c57565b612294565b9050919050565b6000819050919050565b612c9683612c61565b612caa612ca282612c83565b848454612c05565b825550505050565b600090565b612cbf612cb2565b612cca818484612c8d565b505050565b5b81811015612cee57612ce3600082612cb7565b600181019050612cd0565b5050565b601f821115612d3357612d0481612bd3565b612d0d84612be8565b81016020851015612d1c578190505b612d30612d2885612be8565b830182612ccf565b50505b505050565b600082821c905092915050565b6000612d5660001984600802612d38565b1980831691505092915050565b6000612d6f8383612d45565b9150826002028217905092915050565b612d88826121e2565b67ffffffffffffffff811115612da157612da061241c565b5b612dab82546128ad565b612db6828285612cf2565b600060209050601f831160018114612de95760008415612dd7578287015190505b612de18582612d63565b865550612e49565b601f198416612df786612bd3565b60005b82811015612e1f57848901518255600182019150602085019450602081019050612dfa565b86831015612e3c5784890151612e38601f891682612d45565b8355505b6001600288020188555050505b505050505050565b600081519050919050565b600082825260208201905092915050565b6000612e7882612e51565b612e828185612e5c565b9350612e928185602086016121fe565b612e9b81612228565b840191505092915050565b6000608082019050612ebb6000830187612329565b612ec86020830186612329565b612ed560408301856125a3565b8181036060830152612ee78184612e6d565b905095945050505050565b600081519050612f0181612153565b92915050565b600060208284031215612f1d57612f1c61211d565b5b6000612f2b84828501612ef2565b91505092915050565b6000604082019050612f496000830185612329565b612f5660208301846125a3565b9392505050565b7f4e487b7100000000000000000000000000000000000000000000000000000000600052601260045260246000fdfea2646970667358221220519c45df37972a46ef1806e051ad47d1f68e63b08f60c20c6fe01fd111a484e664736f6c63430008140033",
  "linkReferences": {},
  "deployedLinkReferences": {}
}